:100000000C9434000C9451000C9451000C94510049
:100010000C9451000C9451000C9451000C9451001C
:100020000C9451000C9451000C9451000C9451000C
:100030000C9451000C9451000C9451000C945100FC
:100040000C9451000C9451000C9451000C945100EC
:100050000C9451000C9451000C9451000C945100DC
:100060000C9451000C94510011241FBECFEFD8E026
:10007000DEBFCDBF11E0A0E0B1E0E0E2FCE002C0F5
:1000800005900D92A432B107D9F725E0A4E2B1E0C2
:1000900001C01D92A133B207E1F70E9446010C9402
:1000A0000E060C9400001AB881E090E090932701AE
:1000B0008093260190932501809324010E94D4010E
:1000C00008950F93CF93DF930E943504C8E1D1E0E8
:1000D0006A8188810E94CB016A81888121E0260F94
:1000E00041E0480F0FEF0E94C703ECE0F1E06281AE
:1000F00026818081260F482F0E943403E0E0F1E042
:10010000628126818081260F482F0E9434030E943D
:100110009D01DF91CF910F9108958F929F92AF92A1
:10012000BF92CF92DF92EF92FF920F931F93CF93E4
:10013000DF93C8E1D1E0C884D984EA84FB8460916C
:10014000260170912701072E000C880B990B0E9445
:100150001505A70196010E94A1054B015C0168816C
:100160007981072E000C880B990B0E941505A501BB
:1001700094010E9471040E94DD048B0179836883DD
:100180006091240170912501072E000C880B990BBA
:100190000E941505A70196010E94A1056B017C0133
:1001A0006A817B81072E000C880B990B0E94150534
:1001B000A70196010E9471040E94DD049B017B83CC
:1001C0006A834C815D8180E890E0841B950B8017E9
:1001D000910754F490931901809318018FEF9FEFCA
:1001E0009093270180932601809118019091190125
:1001F000992354F4109219011092180181E090E0B3
:10020000909327018093260140911E0150911F0178
:1002100080E490E0841B950B8217930754F490932D
:100220001B0180931A018FEF9FEF9093250180931C
:10023000240180911A0190911B01409764F480E1A0
:1002400090E090931B0180931A0181E090E09093DD
:10025000250180932401DF91CF911F910F91FF9091
:10026000EF90DF90CF90BF90AF909F908F900895C8
:1002700099B184E0892789B9882339F0ECE0F1E06D
:100280008281938101969383828308950E94530013
:100290000E948D000E9438010E946100F9CF66958E
:1002A00066956695E82FF0E080E8689FE00DF11D07
:1002B0001124EF5CFE4F4083089566956695669520
:1002C000E82FF0E080E8689FE00DF11D1124EF5C5D
:1002D000FE4F808108950F931F93CF93DF93C82F14
:1002E0008B01D42F0E94520488E70E9464048C2F53
:1002F0000E946404C0E007C0F801EC0FF11D80818A
:100300000E946404CF5FCD17B8F30E945C04DF91B4
:10031000CF911F910F910895CF93DF931F92CDB787
:10032000DEB7898341E0BE016F5F7F4F80E00E94AE
:100330006B010F90DF91CF910895CF9381E20E94DE
:100340008C0180E00E948C018FE70E948C0182E288
:100350000E948C0180E00E948C0187E00E948C0149
:10036000C0E00BC080E1C89FB00111246F5C7E4FDC
:1003700040E180E40E946B01CF5FC03498F3CF91DD
:100380000895882314F0809328010895803410F490
:10039000809329010895CF93C62F0E94C1018C2F0D
:1003A0000E94C601CF9108950E9439048EEA0E94EE
:1003B0008C0185ED0E948C0180EF0E948C0188EAFF
:1003C0000E948C018FE30E948C0183ED0E948C01BE
:1003D00080E00E948C018DE80E948C0184E10E94E3
:1003E0008C0180E40E948C0180E20E948C0180E0FC
:1003F0000E948C0181EA0E948C0188EC0E948C0191
:100400008AED0E948C0182E10E948C0181E80E94A9
:100410008C018FEF0E948C0189ED0E948C0181EF8D
:100420000E948C018BED0E948C0180E20E948C0165
:1004300084EA0E948C0186EA0E948C018EE20E946E
:100440008C018FEA0E948C0160E080E00E94CB0169
:10045000E8E2F1E086EA8283178216821582118231
:1004600010820895FF920F931F93CF93DF93C62FAF
:10047000142F0E94CB01E8E2F1E0F180D0816F2DD2
:100480008D2F0E945D011F3F79F4C77001E010E0DD
:1004900020E030E004C0000F111F221F331FCA9557
:1004A000D2F7482F402B0FC0C77001E010E020E0CA
:1004B00030E004C0000F111F221F331FCA95D2F76E
:1004C0000095402F48236F2D8D2F0E944F01DF9103
:1004D000CF911F910F91FF9008956F927F928F920D
:1004E0009F92AF92BF92CF92DF92EF92FF920F93C3
:1004F0001F93CF93DF9388230CF4A7C044230CF4FD
:10050000A4C0603408F0A1C0203408F09EC0261BAF
:1005100099249394920E481BD1E0D40F962F977094
:10052000162F191BE92CF12C28E030E0291B31098A
:10053000E216F3067CF428E030E02E193F094FEF75
:1005400050E06A0102C0D594C7942A95E2F72C2D99
:10055000B92C04C028E0B22EB91A2FEFA82EC22E53
:10056000D12C02C0CC0CDD1C9A95E2F76C2C612FCB
:100570000E94CB01812C19C0E8E2F1E07180C081BA
:10058000672D8C2F0E945D010F3F19F4462D482BDB
:1005900003C04C2D4095482381E08C0F80932801A7
:1005A000672D8C2F0E944F0183948D1628F316C05F
:1005B00088E0B80E185F612F8A2D0E94CB01C0E041
:1005C0000BC0E8E2F1E06181808191E0980F9083B7
:1005D000402F0E944F01CF5FCD1798F38B2D90E0F5
:1005E0009C01285F3F4FE216F30614F7B91468F533
:1005F000E81AF90A8FEF90E002C0880F991FEA9479
:10060000E2F7E82EE09468E0610F8A2D0E94CB01AA
:1006100010E019C0E8E2F1E0F180C0816F2D8C2F6D
:100620000E945D010F3F19F44E2D482B03C04E2D43
:100630004095482381E08C0F809328016F2D8C2FEB
:100640000E944F011F5F1D1728F3DF91CF911F916B
:100650000F91FF90EF90DF90CF90BF90AF909F9061
:100660008F907F906F9008958F929F92AF92BF92DC
:10067000CF92DF92EF92FF920F931F93CF93DF936E
:10068000C82FD62F142F88230CF474C044230CF4E5
:1006900071C0603408F06EC0203408F06BC0841361
:1006A0000AC0261710F4D22F262F4C2F6D2F8C2F17
:1006B0000E946D025FC062130EC0481748F4C42F39
:1006C000182F06C0402F6D2F8C2F0E943202CF5F53
:1006D0001C17C0F74FC0261728F4C62ED12CC21AFB
:1006E000D10804C0C22ED12CC61AD1081C1728F478
:1006F000AC2EB12CA11AB10804C0A12EB12CAC1A99
:10070000B108AC14BD0434F4812F122F282F8C2F84
:10071000CD2FD82F1C1730F48D2FD22F282F8C2FB0
:10072000C12F182F912E9C1AD21718F4E22EED1A11
:1007300002C0ED2EE21AF92CF694D21718F4882490
:10074000839416C088248A9413C0AC14BD0434F476
:10075000402F6C2F8D2F0E94320205C0402F6D2F2D
:100760008C2F0E943202FE1812F4D80DF90CCF5FC4
:100770001C1758F7DF91CF911F910F91FF90EF90C9
:10078000DF90CF90BF90AF909F908F900895DF92B1
:10079000EF92FF920F931F93CF93DF9388230CF474
:1007A00045C044230CF442C0603408F03FC02034FC
:1007B000E8F5D02F122FD42EF62EE82E481718F079
:1007C000042FC82F09C0082FC42F06C04D2F6F2D2E
:1007D0008C2F0E943202CF5F0C17C0F7DE1418F086
:1007E0000D2DCE2D09C00E2DCD2D06C04D2F612F04
:1007F0008C2F0E943202CF5F0C17C0F71F1518F024
:10080000212F6F2D02C02F2D612F0D2F4E2D8E2DDC
:100810000E946D021F1518F0212F6F2D02C02F2D81
:10082000612F0D2F4D2D8D2D0E946D02DF91CF91E7
:100830001F910F91FF90EF90DF9008951F93CF933A
:10084000DF93182FD0E00BC0412F6D2F8C2F0E940B
:100850004F01CF5F01C0C0E0CC23B4F7D85FD034E4
:10086000D0F3DF91CF911F91089580E00E941E0484
:10087000089587B1806187B987B1806287B988B1EF
:10088000806188B988B1806288B91092B90088E423
:100890008093B80084E08093BC0008958091B900F3
:1008A000887F089584EA8093BC008091BC008823EF
:1008B000E4F70E944E04089585ED8093BC0080917A
:1008C000BC0084FDFCCF08958093BB0084E8809336
:1008D000BC008091BC008823E4F70E944E04089578
:1008E0005058BB27AA270E9488040C9467050E94D1
:1008F000590538F00E94600520F039F49F3F19F443
:1009000026F40C9456050EF4E095E7FB0C94500584
:10091000E92F0E94780558F3BA1762077307840716
:10092000950720F079F4A6F50C949A050EF4E0955D
:100930000B2EBA2FA02D0B01B90190010C01CA0199
:10094000A0011124FF27591B99F0593F50F4503E44
:1009500068F11A16F040A22F232F342F4427585F36
:10096000F3CF469537952795A795F0405395C9F74E
:100970007EF41F16BA0B620B730B840BBAF0915006
:10098000A1F0FF0FBB1F661F771F881FC2F70EC0A5
:10099000BA0F621F731F841F48F487957795679578
:1009A000B795F7959E3F08F0B0CF9395880F08F064
:1009B0009927EE0F9795879508950E94E40468940F
:1009C000B1110C949B0508950E94800588F09F57F3
:1009D00098F0B92F9927B751B0F0E1F0660F771F63
:1009E000881F991F1AF0BA95C9F714C0B13091F059
:1009F0000E949A05B1E008950C949A05672F782F0C
:100A00008827B85F39F0B93FCCF38695779567951D
:100A1000B395D9F73EF490958095709561957F4F89
:100A20008F4F9F4F0895E89409C097FB3EF490952F
:100A30008095709561957F4F8F4F9F4F9923A9F0B7
:100A4000F92F96E9BB279395F69587957795679546
:100A5000B795F111F8CFFAF4BB0F11F460FF1BC08A
:100A60006F5F7F4F8F4F9F4F16C0882311F096E91D
:100A700011C0772321F09EE8872F762F05C06623CB
:100A800071F096E8862F70E060E02AF09A95660F84
:100A9000771F881FDAF7880F9695879597F908953D
:100AA00097F99F6780E870E060E008959FEF80EC21
:100AB000089500240A9416161706180609060895C4
:100AC00000240A9412161306140605060895092E2A
:100AD0000394000C11F4882352F0BB0F40F4BF2B99
:100AE00011F460FF04C06F5F7F4F8F4F9F4F0895D9
:100AF00057FD9058440F551F59F05F3F71F04795CF
:100B0000880F97FB991F61F09F3F79F087950895B3
:100B1000121613061406551FF2CF4695F1DF08C0D2
:100B2000161617061806991FF1CF869571056105EF
:100B300008940895E894BB2766277727CB0197F997
:100B400008950E94B4050C9467050E94590538F079
:100B50000E94600520F0952311F00C9450050C9430
:100B6000560511240C949B050E94780570F3959FFF
:100B7000C1F3950F50E0551F629FF001729FBB2794
:100B8000F00DB11D639FAA27F00DB11DAA1F649F30
:100B90006627B00DA11D661F829F2227B00DA11DE3
:100BA000621F739FB00DA11D621F839FA00D611D69
:100BB000221F749F3327A00D611D231F849F600D8A
:100BC000211D822F762F6A2F11249F5750409AF0B3
:100BD000F1F088234AF0EE0FFF1FBB1F661F771F3F
:100BE000881F91505040A9F79E3F510580F00C940A
:100BF00050050C949B055F3FE4F3983ED4F3869533
:100C000077956795B795F795E7959F5FC1F7FE2BA9
:100C1000880F911D9695879597F90895F894FFCFC1
:100C20007F00200001000A000000803F000020003B
:100C300001000A000000803F400020000200020086
:040C40000000803FF1
:00000001FF
